:1000000013C037C036C0DAC134C033C032C031C0CB
:1000100030C02FC02EC02DC02CC02BC02AC029C07C
:1000200028C027C026C0020411241FBECFE5D4E09B
:10003000DEBFCDBF10E0A0E6B0E0E2EEF8E002C027
:1000400005900D92A83DB107D9F721E0A8EDB0E0E9
:1000500001C01D92AF30B207E1F710E0C4E1D0E07B
:1000600003C02197FE0135D4C331D107D1F704D3A2
:1000700036C4C6CFFB0111821082E82FF0E0E057B2
:10008000FF4F8081982F9F70FA019083983098F4E9
:10009000807F90E034E0959587953A95E1F784303C
:1000A00050F4880F991FFC01E05AFF4F8081918125
:1000B000FB01918380830895CF93DF9300D01F923B
:1000C000CDB7DEB71A82198294E69B83AE014D5FED
:1000D0005F4FBE016F5F7F4FCDDF89819A810097AF
:1000E00041F0DC01ED91FC910190F081E02D6B81FC
:1000F00009950F900F900F90DF91CF910895CF93B6
:10010000DF9300D01F92CDB7DEB71A82198294E632
:100110009B83AE014D5F5F4FBE016F5F7F4FAADFD4
:1001200089819A81009741F0DC01ED91FC91028078
:10013000F381E02D6B8109950F900F900F90DF9167
:10014000CF910895CF93DF9300D01F92CDB7DEB744
:100150001A82198294E69B83AE014D5F5F4FBE0108
:100160006F5F7F4F87DF89819A81009749F0DC01BB
:10017000ED91FC910480F581E02D6B81099501C022
:1001800080E00F900F900F90DF91CF910895CF9363
:10019000DF9300D01F92CDB7DEB71A82198294E6A2
:1001A0009B83AE014D5F5F4FBE016F5F7F4F62DF8C
:1001B00089819A81009741F0DC01ED91FC910680E4
:1001C000F781E02D6B8109950F900F900F90DF91D3
:1001D000CF910895CF93DF9300D01F92CDB7DEB7B4
:1001E0001A82198294E69B83AE014D5F5F4FBE0178
:1001F0006F5F7F4F3FDF89819A81009741F0DC017B
:10020000ED91FC910084F185E02D6B8109950F90B3
:100210000F900F90DF91CF9108951F93CF93DF93AD
:10022000EC01162F8B81882319F090E0019702C012
:1002300082E090E0FE01E80FF91F8785A8DFFE014C
:10024000E10FF11D828980FDC09A80FFC09882B3C2
:10025000948D9B7E8471892B82BB8B81C80FD11DAD
:100260008F85DF91CF911F91B5CF80E183BD85B59B
:10027000886085BD89B7806889BF85B5876085BD81
:10028000789408950F931F93CF93DF9388E114DF41
:1002900089E112DF87E133DFC4EED0E08E01F8019F
:1002A00081918F012CDFF0E00B3E1F07C1F7809199
:1002B000EB0025DF8091EC0022DF8091ED001FDF55
:1002C000899188DF80E0CB3ED807D1F78091EB00A1
:1002D0005EDF8091EC005BDF8091ED0058DFDF9105
:1002E000CF911F910F91C1CF88E12CDF61E0811187
:1002F00001C060E088E091E050D18130910569F45F
:10030000E091E000F0E0E452FF4F80818F5F8A309F
:1003100010F48083089510820895029751F480911B
:10032000E0008F5F833018F48093E000089510920E
:10033000E00008958F929F92AF92BF92CF92DF928A
:10034000EF92FF92CF93DF936091D8007091D90024
:100350008091DA009091DB0028EE33E040E050E03D
:1003600064D249015A01CCEDD0E08AE0C82ED12CEC
:10037000E12CF12CCA01B901A701960178D268835A
:10038000CA01B901A701960172D26983C501B401FE
:1003900024E630E040E050E06AD2CA01B901A7018A
:1003A000960165D26A83DF91CF91FF90EF90DF9045
:1003B000CF90BF90AF909F908F9008951F920F9213
:1003C0000FB60F9211248F939F93AF93BF93809199
:1003D000D8009091D900A091DA00B091DB00449749
:1003E000A105B105A0F08091D8009091D900A0910D
:1003F000DA00B091DB004497A109B1098093D800DD
:100400009093D900A093DA00B093DB0008C010925B
:10041000D8001092D9001092DA001092DB00BF9140
:10042000AF919F918F910F900FBE0F901F901895D5
:10043000CF93CFE087E1ABDE2FEF80E792E0215052
:1004400080409040E1F700C0000087E1C3DE2FEF5D
:1004500081EF9BE2215080409040E1F700C0000016
:10046000C15041F7CF91089527B381E090E001C0DA
:10047000880F6A95EAF7822B87BB089527B381E03E
:1004800090E001C0880F6A95EAF78095822387BBC8
:10049000089526B381E090E001C0880F6A95EAF7DD
:1004A0008223089528B381E090E001C0880F6A9507
:1004B000EAF7822B88BB089528B381E090E001C061
:1004C000880F6A95EAF78095822388BB089524B344
:1004D00081E090E001C0880F6A95EAF7822B84BB27
:1004E000089524B381E090E001C0880F6A95EAF78F
:1004F0008095822384BB089523B381E090E001C0FE
:10050000880F6A95EAF78223089525B381E090E089
:1005100001C0880F6A95EAF7822B85BB089525B341
:1005200081E090E001C0880F6A95EAF78095822308
:1005300085BB089521B381E090E001C0880F6A95E2
:10054000EAF7822B81BB089521B381E090E001C0DE
:10055000880F6A95EAF78095822381BB089520B3BE
:1005600081E090E001C0880F6A95EAF78223089540
:1005700022B381E090E001C0880F6A95EAF7822BF0
:1005800082BB089522B381E090E001C0880F6A9594
:10059000EAF78095822382BB0895FC01662361F00F
:1005A00080819181803127E2920718F4019691832E
:1005B0008083138212820BC082819381803127E273
:1005C000920718F4019693838283118210828081AE
:1005D00091818536910550F08132934018F481E085
:1005E00090E002C082E090E09583848382819381D1
:1005F0008536910528F084819581158214820895AD
:1006000080E090E00895CF93DF93EC01809170003B
:1006100090917100A091720088839983AA831B82B4
:100620001C8281E08D838E831F8287E0E3E7F0E008
:10063000DE01189601900D928A95E1F780917A007B
:1006400090917B00A0917C008F87988BA98B8AE08A
:10065000EDE7F0E0DE01529601900D928A95E1F708
:100660008AE0E7E8F0E0DE015C9601900D928A9561
:10067000E1F7DF91CF910895CF92DF92EF92FF9251
:10068000CF932FEF80E792E0215080409040E1F738
:1006900000C00000F7DD2FEF80E792E0215080409E
:1006A0009040E1F700C00000C1E080910E0181118F
:1006B00045C089E147DD61E0811101C060E082E071
:1006C00091E06BDF892BD1F1C0930E011092E20013
:1006D0002091DE004091DD0030E0A4E6B0E0E3D000
:1006E0006B017C01242F30E0AAE0B0E0DCD0DC011B
:1006F000CB018C0D9D1DAE1DBF1D2091DC00820F16
:10070000911DA11DB11D8093D8009093D900A09395
:10071000DA00B093DB002091D8003091D9004091ED
:10072000DA005091DB00A8EEB3E0C9D06093D800A6
:100730007093D9008093DA009093DB008091E200FF
:10074000E091DF00882319F19091E1008091E300AE
:10075000992329F08F3748F01092E10006C08E3FB0
:1007600020F0C093E1001092E3008091E3008E3FFF
:1007700020F48F5F8093E30002C01092E300809129
:10078000E0008E1304C08091E100882349F0F0E07E
:10079000E452FF4F60816A3018F48CED90E03DDD4B
:1007A0008091DF008F5F833018F48093DF0002C0F8
:1007B0001092DF0080910E01811102C095DD75CF8E
:1007C000B9DD8091D8009091D900A091DA00B09164
:1007D000DB00892B8A2B8B2B09F067CF29DE8091D8
:1007E000EB00D5DC8091EC00D2DC8091ED00CFDC19
:1007F00018BA12BA80E090E0CF91FF90EF90DF90AE
:10080000CF900895E8E0F1E0118210821382128205
:1008100015821482E2E0F1E01182108213821282CA
:10082000158214828CED90E0EECEA1E21A2EAA1B66
:10083000BB1BFD010DC0AA1FBB1FEE1FFF1FA21790
:10084000B307E407F50720F0A21BB30BE40BF50B8D
:10085000661F771F881F991F1A9469F76095709516
:10086000809590959B01AC01BD01CF010895052EA7
:1008700097FB16F400940FD057FD05D0D6DF07FC88
:1008800002D046F408C050954095309521953F4FD1
:100890004F4F5F4F089590958095709561957F4F6C
:1008A0008F4F9F4F0895A29FB001B39FC001A39F98
:1008B00001D0B29F700D811D1124911D0895F3DFA9
:1008C000A59F900DB49F900DA49F800D911D1124A4
:1008D0000895EE0FFF1F0590F491E02D0994F89410
:0208E000FFCF48
:1008E2006E006C006A006800CD00BF00B100B1006C
:1008F2000302010E020B0C0D030504060A0100019E
:1009020001000101010101E321C9692B6AEA21EB1E
:100912006B2630313233340000161735363710115A
:1009220012131415000000202122232425000000A8
:10093200003E023402490252025C020000000071D1
:100942000267027C0285028F0200000000A4029A64
:0809520002AF02B802C202006C
:00000001FF
