:1000000013C02CC02BC095C029C028C027C026C053
:1000100025C024C023C022C021C020C01FC01EC0D4
:100020001DC01CC01BC0E20111241FBECFE5D4E0DF
:10003000DEBFCDBF20E0A0E6B0E001C01D92A53735
:10004000B207E1F710E0C4E1D0E003C02197FE0160
:1000500026D2C331D107D1F736D127C2D1CF80E123
:1000600083BD85B5886085BD89B7806889BF85B542
:10007000876085BD789408958A988B98A59AA49AEC
:10008000A39AA19AA09A889A899ABD9ABC9AE7CF16
:1000900060B362FB662760F98EE690E084D0813021
:1000A000910569F4E0916700F0E0EC59FF4F808121
:1000B0008F5F8A3010F4808308951082089502972C
:1000C00051F4809167008F5F823018F4809367004D
:1000D0000895109267000895CF92DF92EF92FF92F9
:1000E000CF93DF9360916000709161008091620016
:1000F0009091630028EE33E040E050E07CD1C4E60C
:10010000D0E08AE0C82ED12CE12CF12CCA01B90133
:10011000A701960192D16883CA01B901A70196018E
:100120008CD16983DF91CF91FF90EF90DF90CF90DA
:1001300008951F920F920FB60F9211248F939F93E1
:10014000AF93BF938091600090916100A091620095
:10015000B09163004497A105B105A0F080916000C3
:1001600090916100A0916200B09163004497A10951
:10017000B1098093600090936100A0936200B093F6
:10018000630008C01092600010926100109262003B
:1001900010926300BF91AF919F918F910F900FBE0E
:1001A0000F901F901895FC01662361F0808191816A
:1001B000803127E2920718F401969183808313829D
:1001C00012820BC082819381803127E2920718F45A
:1001D000019693838283118210828081918181397B
:1001E00021E0920750F0893E934018F481E090E0BE
:1001F00002C082E090E09583848382819381893C70
:10020000910528F08481958115821482089580E0FB
:1002100090E00895FC018281DF01A80FB11D8C914F
:10022000813011F0843011F4AD9801C0AD9A828113
:10023000DF01A80FB11D8C918550823010F4AC986D
:1002400001C0AC9A8281DF01A80FB11D8C91823070
:1002500011F4AB9801C0AB9A8281DF01A80FB11DE8
:100260008C91813021F0843011F0873011F4A998FD
:1002700001C0A99A8281DF01A80FB11D8C91982F2E
:100280009D7F21F0863011F0883011F4A89A01C0CA
:10029000A8988281DF01A80FB11D8C919FEF980F64
:1002A000933010F0873011F4909801C0909A8281B9
:1002B000E80FF11D8081823010F0873011F49198A1
:1002C0000895919A0895CF932FEF84E39CE02150F5
:1002D00080409040E1F700C00000CEDE2FEF84E3C5
:1002E0009CE0215080409040E1F700C00000C1E058
:1002F00080917400811134C060B363FB662760F99C
:1003000088E690E050DF892B59F1C093740020916A
:1003100065004091640030E0AAE0B0E0AAD0DC01C2
:10032000CB01840F911DA11DB11D8093600090939E
:100330006100A0936200B09363002091600030914F
:1003400061004091620050916300A8EEB3E09DD03F
:1003500060936000709361008093620090936300EB
:1003600084E690E057DF80916600811102C0C59855
:1003700008C0813019F4C59AC49804C0823011F4C1
:10038000C59AC49A8F5F823018F48093660002C0C9
:100390001092660080917400811102C079DEA8CFAE
:1003A0009BDE8091600090916100A0916200B0910D
:1003B0006300892B8A2B8B2B09F09ACF80E090E089
:1003C000CF910895EEE6F0E011821082138212823E
:1003D00015821482E8E6F0E0118210821382128204
:1003E00015821482E4E6F0E01282138281E08083B9
:1003F00082E081830895A1E21A2EAA1BBB1BFD0196
:100400000DC0AA1FBB1FEE1FFF1FA217B307E407F3
:10041000F50720F0A21BB30BE40BF50B661F771F4B
:10042000881F991F1A9469F760957095809590952B
:100430009B01AC01BD01CF010895052E97FB16F479
:1004400000940FD057FD05D0D6DF07FC02D046F44C
:1004500008C050954095309521953F4F4F4F5F4FC5
:10046000089590958095709561957F4F8F4F9F4F20
:100470000895A29FB001B39FC001A39F01D0B29F76
:10048000700D811D1124911D0895F3DFA59F900D1E
:10049000B49F900DA49F800D911D11240895EE0F1F
:0E04A000FF1F0590F491E02D0994F894FFCF12
:00000001FF
