:1000000013C037C036C0ACC134C033C032C031C0F9
:1000100030C02FC02EC02DC02CC02BC02AC029C07C
:1000200028C027C026C06E0311241FBECFE5D4E030
:10003000DEBFCDBF10E0A0E6B0E0EAE2F8E002C02B
:1000400005900D92A83DB107D9F721E0A8EDB0E0E9
:1000500001C01D92AD30B207E1F710E0C4E1D0E07D
:1000600003C02197FE01D9D3C331D107D1F782D282
:10007000DAC3C6CFFB0111821082E82FF0E0E0570F
:10008000FF4F8081982F9F70FA019083983098F4E9
:10009000807F90E034E0959587953A95E1F784303C
:1000A00050F4880F991FFC01E05AFF4F8081918125
:1000B000FB01918380830895CF93DF9300D01F923B
:1000C000CDB7DEB71A82198294E69B83AE014D5FED
:1000D0005F4FBE016F5F7F4FCDDF89819A810097AF
:1000E00041F0DC01ED91FC910190F081E02D6B81FC
:1000F00009950F900F900F90DF91CF910895CF93B6
:10010000DF9300D01F92CDB7DEB71A82198294E632
:100110009B83AE014D5F5F4FBE016F5F7F4FAADFD4
:1001200089819A81009741F0DC01ED91FC91028078
:10013000F381E02D6B8109950F900F900F90DF9167
:10014000CF910895CF93DF9300D01F92CDB7DEB744
:100150001A82198294E69B83AE014D5F5F4FBE0108
:100160006F5F7F4F87DF89819A81009749F0DC01BB
:10017000ED91FC910480F581E02D6B81099501C022
:1001800080E00F900F900F90DF91CF910895CF9363
:10019000DF9300D01F92CDB7DEB71A82198294E6A2
:1001A0009B83AE014D5F5F4FBE016F5F7F4F62DF8C
:1001B00089819A81009741F0DC01ED91FC910680E4
:1001C000F781E02D6B8109950F900F900F90DF91D3
:1001D000CF910895CF93DF9300D01F92CDB7DEB7B4
:1001E0001A82198294E69B83AE014D5F5F4FBE0178
:1001F0006F5F7F4F3FDF89819A81009741F0DC017B
:10020000ED91FC910084F185E02D6B8109950F90B3
:100210000F900F90DF91CF91089580E183BD85B558
:10022000886085BD89B7806889BF85B5876085BDD1
:10023000789408950F931F93CF93DF93C2EED0E08D
:100240008E01F80181918F015ADFF0E0093E1F070E
:10025000C1F78091E90053DF8091EA0050DF80917F
:10026000EB004DDF8991B6DF80E0C93ED807D1F7BA
:100270008091E9008CDF8091EA0089DF8091EB00BA
:1002800086DFDF91CF911F910F91C7CF88E15ADFB1
:1002900061E0811101C060E086E091E034D18130FD
:1002A000910569F4E091E100F0E0E452FF4F8081B4
:1002B0008F5F8A3010F4808308951082089502972A
:1002C00051F48091E1008F5F833018F48093E10056
:1002D00008951092E10008958F929F92AF92BF927D
:1002E000CF92DF92EF92FF92CF93DF936091D8008D
:1002F0007091D9008091DA009091DB0028EE33E014
:1003000040E050E036D249015A01CCEDD0E08AE01D
:10031000C82ED12CE12CF12CCA01B901A7019601FC
:100320004AD26883CA01B901A701960144D2698300
:10033000C501B40124E630E040E050E03CD2CA01FF
:10034000B901A701960137D26A83DF91CF91FF905F
:10035000EF90DF90CF90BF90AF909F908F900895D7
:100360001F920F920FB60F9211248F939F93AF930A
:10037000BF938091D8009091D900A091DA00B091FC
:10038000DB004497A105B105A0F08091D8009091C1
:10039000D900A091DA00B091DB004497A109B1091E
:1003A0008093D8009093D900A093DA00B093DB003B
:1003B00008C01092D8001092D9001092DA00109262
:1003C000DB00BF91AF919F918F910F900FBE0F9067
:1003D0001F90189527B381E090E001C0880F6A95BF
:1003E000EAF7822B87BB089527B381E090E001C034
:1003F000880F6A95EAF78095822387BB089526B314
:1004000081E090E001C0880F6A95EAF782230895A1
:1004100028B381E090E001C0880F6A95EAF7822B4B
:1004200088BB089528B381E090E001C0880F6A95E9
:10043000EAF78095822388BB089524B381E090E099
:1004400001C0880F6A95EAF7822B84BB089524B314
:1004500081E090E001C0880F6A95EAF780958223D9
:1004600084BB089523B381E090E001C0880F6A95B2
:10047000EAF78223089525B381E090E001C0880F58
:100480006A95EAF7822B85BB089525B381E090E059
:1004900001C0880F6A95EAF78095822385BB08958D
:1004A00021B381E090E001C0880F6A95EAF7822BC2
:1004B00081BB089521B381E090E001C0880F6A9567
:1004C000EAF78095822381BB089520B381E090E014
:1004D00001C0880F6A95EAF78223089522B381E06C
:1004E00090E001C0880F6A95EAF7822B82BB0895DD
:1004F00022B381E090E001C0880F6A95EAF7809509
:10050000822382BB0895FC01662361F08081918182
:10051000803127E2920718F4019691838083138239
:1005200012820BC082819381803127E2920718F4F6
:100530000196938382831182108280819181813917
:1005400021E0920750F0893E934018F481E090E05A
:1005500002C082E090E09583848382819381893C0C
:10056000910528F08481958115821482089580E098
:1005700090E00895CF92DF92EF92FF92CF932FEF0A
:1005800084E39CE0215080409040E1F700C00000EF
:1005900051DE2FEF84E39CE0215080409040E1F752
:1005A00000C00000C1E080910C01811143C089E1CD
:1005B000C9DD61E0811101C060E080E091E0A3DF6E
:1005C000892BC1F1C0930C012091DE004091DD0028
:1005D00030E0A4E6B0E00BD16B017C01242F30E0C9
:1005E000AAE0B0E004D1DC01CB018C0D9D1DAE1D55
:1005F000BF1D2091DC00820F911DA11DB11D8093B4
:10060000D8009093D900A093DA00B093DB0020913A
:10061000D8003091D9004091DA005091DB00A8EE6B
:10062000B3E0F1D06093D8007093D9008093DA00E2
:100630009093DB003091DF00832F90E0FC01E452C7
:10064000FF4FE081F0E0E452FF4F2089216028BB9A
:10065000228D2B6E22BB332311F0019702C082E062
:1006600090E0FC01E452FF4F858591DDE091DF00D1
:10067000F0E0E452FF4F8585ADDD8091DF008F5FB4
:10068000833018F48093DF0002C01092DF00809165
:100690000C01811102C0FADD86CF1EDE8091D800E8
:1006A0009091D900A091DA00B091DB00892B8A2BC0
:1006B0008B2B09F078CF8091E90069DD8091EA0009
:1006C00066DD8091EB0063DD18BA12BA80E090E03D
:1006D000CF91FF90EF90DF90CF900895CF93DF936D
:1006E000E6E0F1E0118210821382128215821482F8
:1006F000E0E0F1E0118210821382128215821482EE
:10070000CCEDD0E08091700090917100A0917200CA
:1007100088839983AA831B821C821D8287E0E3E77A
:10072000F0E0A2EEB0E001900D928A95E1F78091A1
:100730007A0090917B00A0917C008D879E87AF8787
:100740008AE0EDE7F0E0ACEEB0E001900D928A9522
:10075000E1F78AE0E7E8F0E0A6EFB0E001900D9263
:100760008A95E1F781E0888383E08983DF91CF91E7
:100770000895A1E21A2EAA1BBB1BFD010DC0AA1FE2
:10078000BB1FEE1FFF1FA217B307E407F50720F0FA
:10079000A21BB30BE40BF50B661F771F881F991F75
:1007A0001A9469F760957095809590959B01AC01BE
:1007B000BD01CF010895052E97FB16F400940FD0CC
:1007C00057FD05D0D6DF07FC02D046F408C050958F
:1007D0004095309521953F4F4F4F5F4F089590952D
:1007E0008095709561957F4F8F4F9F4F0895A29F81
:1007F000B001B39FC001A39F01D0B29F700D811DB6
:100800001124911D0895F3DFA59F900DB49F900DC5
:10081000A49F800D911D11240895EE0FFF1F0590D8
:0A082000F491E02D0994F894FFCF45
:10082A006E006C006A006800CD00BF00B100B10024
:10083A000302010E020B0C0D030504060A01000156
:10084A0001000101010101E321C9692B6AEA21EBD7
:10085A006B26303132333400001617353637101113
:10086A001213141500000020212223242500000061
:10087A0000F401EA01FF0108021202000000002749
:10088A00021D0232023B024502000000005A0250D9
:08089A000265026E0278020003
:00000001FF
