:1000000013C037C036C0D4C034C033C032C031C0D2
:1000100030C02FC02EC02DC02CC02BC02AC029C07C
:1000200028C027C026C0270211241FBECFE5D4E078
:10003000DEBFCDBF10E0A0E6B0E0EAE8F5E002C028
:1000400005900D92AE3CB107D9F720E0AEECB0E0E0
:1000500001C01D92A93FB207E1F710E0C4E1D0E072
:1000600003C02197FE0189D2C331D107D1F773D1E3
:100070008AC2C6CFE82FF0E0EA57FF4F80818F7029
:10008000FA01808308950895089580E00895089501
:10009000089580E183BD85B5886085BD89B7806896
:1000A00089BF85B5876085BD78940895F2CF80912A
:1000B000F4009091F500803127E2920728F4019630
:1000C0009093F5008093F4001092F3001092F200E8
:1000D0008091F4009091F500893C910520F1809188
:1000E000F6009091F7001092F7001092F600813020
:1000F000910569F4E091E100F0E0EE52FF4F828556
:100100008F5F8A3010F482870895128608950297CF
:1001100051F48091E1008F5F833018F48093E10007
:1001200008951092E10008958F929F92AF92BF922E
:10013000CF92DF92EF92FF92CF93DF936091CE0048
:100140007091CF008091D0009091D10028EE33E0E3
:1001500040E050E0BED149015A01C2EDD0E08AE052
:10016000C82ED12CE12CF12CCA01B901A7019601AE
:10017000D2D16A87CA01B901A7019601CCD16B8798
:10018000C501B40124E630E040E050E0C4D1CA012A
:10019000B901A7019601BFD16C87DF91CF91FF9084
:1001A000EF90DF90CF90BF90AF909F908F90089589
:1001B0001F920F920FB60F9211248F939F93AF93BC
:1001C000BF938091CE009091CF00A091D000B091CC
:1001D000D1004497A105B105A0F08091CE00909187
:1001E000CF00A091D000B091D1004497A109B109EE
:1001F0008093CE009093CF00A093D000B093D10015
:1002000008C01092CE001092CF001092D000109231
:10021000D100BF91AF919F918F910F900FBE0F9022
:100220001F90189527B381E090E001C0880F6A9570
:10023000EAF7822B87BB089527B381E090E001C0E5
:10024000880F6A95EAF78095822387BB089526B3C5
:1002500081E090E001C0880F6A95EAF78223089553
:1002600028B381E090E001C0880F6A95EAF7822BFD
:1002700088BB089528B381E090E001C0880F6A959B
:10028000EAF78095822388BB089524B381E090E04B
:1002900001C0880F6A95EAF7822B84BB089524B3C6
:1002A00081E090E001C0880F6A95EAF7809582238B
:1002B00084BB089523B381E090E001C0880F6A9564
:1002C000EAF78223089525B381E090E001C0880F0A
:1002D0006A95EAF7822B85BB089525B381E090E00B
:1002E00001C0880F6A95EAF78095822385BB08953F
:1002F00021B381E090E001C0880F6A95EAF7822B74
:1003000081BB089521B381E090E001C0880F6A9518
:10031000EAF78095822381BB089520B381E090E0C5
:1003200001C0880F6A95EAF78223089522B381E01D
:1003300090E001C0880F6A95EAF7822B82BB08958E
:1003400022B381E090E001C0880F6A95EAF78095BA
:10035000822382BB0895CF92DF92EF92FF92CF93D8
:100360002FEF84E39CE0215080409040E1F700C0F3
:1003700000008FDE2FEF84E39CE02150804090400E
:10038000E1F700C00000C1E02091DE004091DD00F7
:1003900030E0A4E6B0E0DBD06B017C01242F30E03C
:1003A000AAE0B0E0D4D0DC01CB018C0D9D1DAE1DC8
:1003B000BF1D2091DC00820F911DA11DB11DE09198
:1003C000E000F091DF002091F80021111BC0809324
:1003D000CE009093CF00A093D000B093D100209195
:1003E000CE003091CF004091D0005091D100A8EEC6
:1003F000B3E0B9D06093CE007093CF008093D0006B
:100400009093D10081E08E0F873028F0FF5FF330AA
:1004100008F0F0E080E0C093F8008093E000F093F3
:10042000DF0082DE8091CE009091CF00A091D000BD
:10043000B091D100892B8A2B8B2B09F0A5CF80E0BE
:1004400090E0CF91FF90EF90DF90CF900895CF9301
:10045000DF93E2EFF0E011821082138212821582A4
:100460001482ECEEF0E01182108213821282158267
:1004700014828AE0E0E7F0E0A2EDB0E001900D9296
:100480008A95E1F7C2EDD0E080917A0090917B00EF
:10049000A0917C008A879B87AC871D861E861F865D
:1004A00087E0EDE7F0E0A2EEB0E001900D928A95D2
:1004B000E1F78091840090918500A09186008F8B58
:1004C000988FA98F81E08A8783E08B87DF91CF9116
:1004D0000895A1E21A2EAA1BBB1BFD010DC0AA1F85
:1004E000BB1FEE1FFF1FA217B307E407F50720F09D
:1004F000A21BB30BE40BF50B661F771F881F991F18
:100500001A9469F760957095809590959B01AC0160
:10051000BD01CF010895052E97FB16F400940FD06E
:1005200057FD05D0D6DF07FC02D046F408C0509531
:100530004095309521953F4F4F4F5F4F08959095CF
:100540008095709561957F4F8F4F9F4F0895A29F23
:10055000B001B39FC001A39F01D0B29F700D811D58
:100560001124911D0895F3DFA59F900DB49F900D68
:10057000A49F800D911D11240895EE0FFF1F05907B
:0A058000F491E02D0994F894FFCFE8
:10058A006E006C006A006800C300B500A700A700EF
:10059A003F065B4F666D7D077F6F0302010E020BFC
:1005AA000C0D030504060A263031323334000016D6
:1005BA0017353637101112131415000000202122A6
:1005CA00232425000000001C011201270130013AF2
:1005DA0001000000004F0145015A0163016D01004D
:0E05EA00000000820178018D019601A0010041
:00000001FF
