:1000000013C037C036C0ACC134C033C032C031C0F9
:1000100030C02FC02EC02DC02CC02BC02AC029C07C
:1000200028C027C026C09C0311241FBECFE5D4E002
:10003000DEBFCDBF10E0A0E6B0E0E4E7F8E002C02C
:1000400005900D92AE3CB107D9F720E0AEECB0E0E0
:1000500001C01D92A93FB207E1F710E0C4E1D0E072
:1000600003C02197FE01FED3C331D107D1F782D25D
:10007000FFC3C6CFFB0111821082E82FF0E0EA57E0
:10008000FF4F8081982F9F70FA019083983098F4E9
:10009000807F90E034E0959587953A95E1F784303C
:1000A00050F4880F991FFC01E05AFF4F8081918125
:1000B000FB01918380830895CF93DF9300D01F923B
:1000C000CDB7DEB71A82198294E69B83AE014D5FED
:1000D0005F4FBE016F5F7F4FCDDF89819A810097AF
:1000E00041F0DC01ED91FC910190F081E02D6B81FC
:1000F00009950F900F900F90DF91CF910895CF93B6
:10010000DF9300D01F92CDB7DEB71A82198294E632
:100110009B83AE014D5F5F4FBE016F5F7F4FAADFD4
:1001200089819A81009741F0DC01ED91FC91028078
:10013000F381E02D6B8109950F900F900F90DF9167
:10014000CF910895CF93DF9300D01F92CDB7DEB744
:100150001A82198294E69B83AE014D5F5F4FBE0108
:100160006F5F7F4F87DF89819A81009749F0DC01BB
:10017000ED91FC910480F581E02D6B81099501C022
:1001800080E00F900F900F90DF91CF910895CF9363
:10019000DF9300D01F92CDB7DEB71A82198294E6A2
:1001A0009B83AE014D5F5F4FBE016F5F7F4F62DF8C
:1001B00089819A81009741F0DC01ED91FC910680E4
:1001C000F781E02D6B8109950F900F900F90DF91D3
:1001D000CF910895CF93DF9300D01F92CDB7DEB7B4
:1001E0001A82198294E69B83AE014D5F5F4FBE0178
:1001F0006F5F7F4F3FDF89819A81009741F0DC017B
:10020000ED91FC910084F185E02D6B8109950F90B3
:100210000F900F90DF91CF91089580E183BD85B558
:10022000886085BD89B7806889BF85B5876085BDD1
:10023000789408950F931F93CF93DF93C2EED0E08D
:100240008E01F80181918F015ADFF0E0093E1F070E
:10025000C1F78091E90053DF8091EA0050DF80917F
:10026000EB004DDF8991B6DF80E0C93ED807D1F7BA
:100270008091E9008CDF8091EA0089DF8091EB00BA
:1002800086DFDF91CF911F910F91C7CF88E15ADFB1
:1002900061E0811101C060E082EF90E034D18130F3
:1002A000910569F4E091E100F0E0EE52FF4F8285A4
:1002B0008F5F8A3010F4828708951286089502971E
:1002C00051F48091E1008F5F833018F48093E10056
:1002D00008951092E10008958F929F92AF92BF927D
:1002E000CF92DF92EF92FF92CF93DF936091CE0097
:1002F0007091CF008091D0009091D10028EE33E032
:1003000040E050E05BD249015A01C2EDD0E08AE002
:10031000C82ED12CE12CF12CCA01B901A7019601FC
:100320006FD26A87CA01B901A701960169D26B87AA
:10033000C501B40124E630E040E050E061D2CA01DA
:10034000B901A70196015CD26C87DF91CF91FF9034
:10035000EF90DF90CF90BF90AF909F908F900895D7
:100360001F920F920FB60F9211248F939F93AF930A
:10037000BF938091CE009091CF00A091D000B0911A
:10038000D1004497A105B105A0F08091CE009091D5
:10039000CF00A091D000B091D1004497A109B1093C
:1003A0008093CE009093CF00A093D000B093D10063
:1003B00008C01092CE001092CF001092D000109280
:1003C000D100BF91AF919F918F910F900FBE0F9071
:1003D0001F90189527B381E090E001C0880F6A95BF
:1003E000EAF7822B87BB089527B381E090E001C034
:1003F000880F6A95EAF78095822387BB089526B314
:1004000081E090E001C0880F6A95EAF782230895A1
:1004100028B381E090E001C0880F6A95EAF7822B4B
:1004200088BB089528B381E090E001C0880F6A95E9
:10043000EAF78095822388BB089524B381E090E099
:1004400001C0880F6A95EAF7822B84BB089524B314
:1004500081E090E001C0880F6A95EAF780958223D9
:1004600084BB089523B381E090E001C0880F6A95B2
:10047000EAF78223089525B381E090E001C0880F58
:100480006A95EAF7822B85BB089525B381E090E059
:1004900001C0880F6A95EAF78095822385BB08958D
:1004A00021B381E090E001C0880F6A95EAF7822BC2
:1004B00081BB089521B381E090E001C0880F6A9567
:1004C000EAF78095822381BB089520B381E090E014
:1004D00001C0880F6A95EAF78223089522B381E06C
:1004E00090E001C0880F6A95EAF7822B82BB0895DD
:1004F00022B381E090E001C0880F6A95EAF7809509
:10050000822382BB0895FC01662361F08081918182
:10051000803127E2920718F4019691838083138239
:1005200012820BC082819381803127E2920718F4F6
:100530000196938382831182108280819181813917
:1005400021E0920750F0893E934018F481E090E05A
:1005500002C082E090E09583848382819381893C0C
:10056000910528F08481958115821482089580E098
:1005700090E00895CF92DF92EF92FF92CF932FEF0A
:1005800084E39CE0215080409040E1F700C00000EF
:1005900051DE2FEF84E39CE0215080409040E1F752
:1005A00000C00000C1E08091F800811143C089E1E2
:1005B000C9DD61E0811101C060E08CEE90E0A3DF55
:1005C000892BC1F1C093F8002091DE004091DD003D
:1005D00030E0A4E6B0E030D16B017C01242F30E0A4
:1005E000AAE0B0E029D1DC01CB018C0D9D1DAE1D30
:1005F000BF1D2091DC00820F911DA11DB11D8093B4
:10060000CE009093CF00A093D000B093D100209162
:10061000CE003091CF004091D0005091D100A8EE93
:10062000B3E016D16093CE007093CF008093D000DA
:100630009093D1008091E000882319F090E0019719
:1006400002C086E090E0FC01EE52FF4F8089C2DDDF
:100650008091E000811115C08091DF00882319F09E
:1006600090E0019702C082E090E0FC01EE52FF4F63
:1006700087898DDDE091DF00F0E0EE52FF4F878942
:10068000A9DDE091DF00F0E0EE52FF4FE285EA30B5
:1006900090F44091E000483070F4242F30E0F0E016
:1006A000EE52FF4F808190E002C0959587954A9564
:1006B000E2F780FD3BC08091E0008F5F873018F447
:1006C0008093E0000CC01092E0008091DF008F5F0B
:1006D000833018F48093DF0002C01092DF00809115
:1006E000F800811102C0D2DD5ECFF6DD8091CE0030
:1006F0009091CF00A091D000B091D100892B8A2B8E
:100700008B2B09F050CF8091E90041DD8091EA0008
:100710003EDD8091EB003BDD18BA12BA80E090E03C
:10072000CF91FF90EF90DF90CF900895F901EE52B6
:10073000FF4F80892CDDBFCFCF93DF93E2EFF0E056
:10074000118210821382128215821482ECEEF0E084
:100750001182108213821282158214828AE0E0E7ED
:10076000F0E0A2EDB0E001900D928A95E1F7C2EDC4
:10077000D0E080917A0090917B00A0917C008A87E4
:100780009B87AC871D861E861F8687E0EDE7F0E01D
:10079000A2EEB0E001900D928A95E1F7809184007D
:1007A00090918500A09186008F8B988FA98F81E012
:1007B0008A8783E08B87DF91CF910895A1E21A2E7B
:1007C000AA1BBB1BFD010DC0AA1FBB1FEE1FFF1FF5
:1007D000A217B307E407F50720F0A21BB30BE40B45
:1007E000F50B661F771F881F991F1A9469F760958C
:1007F0007095809590959B01AC01BD01CF01089546
:10080000052E97FB16F400940FD057FD05D0D6DFC8
:1008100007FC02D046F408C05095409530952195CC
:100820003F4F4F4F5F4F089590958095709561951C
:100830007F4F8F4F9F4F0895A29FB001B39FC0017C
:10084000A39F01D0B29F700D811D1124911D0895A9
:10085000F3DFA59F900DB49F900DA49F800D911D77
:1008600011240895EE0FFF1F0590F491E02D0994D7
:04087000F894FFCF2A
:100874006E006C006A006800C300B500A700A70002
:100884003F065B4F666D7D077F6F0302010E020B0F
:100894000C0D030504060A263031323334000016E9
:1008A40017353637101112131415000000202122B9
:1008B40023242500000000F401EA01FF01080212CC
:1008C400020000000027021D0232023B0245020022
:0E08D4000000005A02500265026E0278020017
:00000001FF
