:1000000013C02CC02BC097C029C028C027C026C051
:1000100025C024C023C022C021C020C01FC01EC0D4
:100020001DC01CC01BC0E40111241FBECFE5D4E0DD
:10003000DEBFCDBF20E0A0E6B0E001C01D92A63734
:10004000B207E1F710E0C4E1D0E003C02197FE0160
:100050002AD2C331D107D1F738D12BC2D1CF80E119
:1000600083BD85B5886085BD89B7806889BF85B542
:10007000876085BD789408958A988B98A59AA49AEC
:10008000A39AA19AA09ABA9ABB9AA29AAA98BC9A41
:10009000BD9AE5CF60B362FB662760F98FE690E01A
:1000A00084D08130910569F4E0916800F0E0EC596A
:1000B000FF4F80818F5F8A3010F480830895108213
:1000C0000895029751F4809168008F5F823018F490
:1000D000809368000895109268000895CF92DF928F
:1000E000EF92FF92CF93DF93609160007091610077
:1000F000809162009091630028EE33E040E050E090
:100100007ED1C4E6D0E08AE0C82ED12CE12CF12CBF
:10011000CA01B901A701960194D16883CA01B90146
:10012000A70196018ED16983DF91CF91FF90EF9067
:10013000DF90CF9008951F920F920FB60F92112467
:100140008F939F93AF93BF938091600090916100D4
:10015000A0916200B09163004497A105B105A0F0A1
:100160008091600090916100A0916200B091630065
:100170004497A109B1098093600090936100A09316
:100180006200B093630008C010926000109261009A
:100190001092620010926300BF91AF919F918F9176
:1001A0000F900FBE0F901F901895FC01662361F011
:1001B00080819181803127E2920718F40196918322
:1001C0008083138212820BC082819381803127E267
:1001D000920718F4019693838283118210828081A2
:1001E0009181813921E0920750F0893E934018F4C3
:1001F00081E090E002C082E090E095838483828178
:100200009381893C910528F084819581158214821F
:10021000089580E090E00895FC018381DF01A80F3C
:10022000B11D8C91813011F0843011F4AD9801C072
:10023000AD9A8381DF01A80FB11D8C91855082306A
:1002400010F4AC9801C0AC9A8381DF01A80FB11DF6
:100250008C91823011F4AB9801C0AB9A8381DF019D
:10026000A80FB11D8C91813021F0843011F08730BE
:1002700011F4A99801C0A99A8381DF01A80FB11DCB
:100280008C91982F9D7F21F0863011F0883011F4E9
:10029000A89A01C0A8988381DF01A80FB11D8C9195
:1002A0009FEF980F933010F0873011F4C29801C07F
:1002B000C29A8381E80FF11D8081823010F087306F
:1002C00011F4C3980895C39A0895CF932FEF84E350
:1002D0009CE0215080409040E1F700C00000CCDE5F
:1002E0002FEF84E39CE0215080409040E1F700C074
:1002F0000000C1E080917500811134C060B363FBE0
:10030000662760F989E690E050DF892B59F1C093A8
:100310007500209165004091640030E0AAE0B0E0F3
:10032000ACD0DC01CB01840F911DA11DB11D8093C8
:10033000600090936100A0936200B09363002091ED
:100340006000309161004091620050916300A8EE1E
:10035000B3E09FD06093600070936100809362006F
:100360009093630084E690E057DF809167008111ED
:1003700002C0C49808C0813019F4C49AC59804C05A
:10038000823011F4C49AC59A8F5F823018F480933A
:10039000670002C01092670080917500811102C051
:1003A00079DEA8CF9BDE8091600090916100A091E2
:1003B0006200B0916300892B8A2B8B2B09F09ACFB6
:1003C00080E090E0CF910895EFE6F0E01182108296
:1003D0001382128215821482E9E6F0E01182108203
:1003E0001382128215821482E4E6F0E013821482F2
:1003F00081E0808382E0818383E082830895A1E2AB
:100400001A2EAA1BBB1BFD010DC0AA1FBB1FEE1F8E
:10041000FF1FA217B307E407F50720F0A21BB30BD9
:10042000E40BF50B661F771F881F991F1A9469F755
:1004300060957095809590959B01AC01BD01CF01B1
:100440000895052E97FB16F400940FD057FD05D0A4
:10045000D6DF07FC02D046F408C050954095309591
:1004600021953F4F4F4F5F4F089590958095709520
:1004700061957F4F8F4F9F4F0895A29FB001B39F0B
:10048000C001A39F01D0B29F700D811D1124911D49
:100490000895F3DFA59F900DB49F900DA49F800D4C
:1004A000911D11240895EE0FFF1F0590F491E02D8A
:0604B0000994F894FFCF4F
:00000001FF
