:1000000013C037C036C09AC034C033C032C031C00C
:1000100030C02FC02EC02DC02CC02BC02AC029C07C
:1000200028C027C026C0270211241FBECFE5D4E078
:10003000DEBFCDBF10E0A0E6B0E0E4E9F5E002C02D
:1000400005900D92AA36B107D9F720E0AAE6B0E0F4
:1000500001C01D92A53AB207E1F710E0C4E1D0E07B
:1000600003C02197FE018ED2C331D107D1F7EAD068
:100070008FC2C6CF80E183BD85B5886085BD89B755
:10008000806889BF85B5876085BD789408958A9812
:100090008B988EE690E0C3D0EDCF60B362FB66270D
:1000A00060F98EE990E084D08130910569F4E091A7
:1000B0007C00F0E0E259FF4F82858F5F8A3010F4B8
:1000C0008287089512860895029751F480917C00EA
:1000D0008F5F823018F480937C00089510927C002A
:1000E0000895CF92DF92EF92FF92CF93DF936091CA
:1000F0006A0070916B0080916C0090916D0028EE09
:1001000033E040E050E0EAD1CEE6D0E08AE0C82E0D
:10011000D12CE12CF12CCA01B901A701960100D222
:100120006A87CA01B901A7019601FAD16B87DF91ED
:10013000CF91FF90EF90DF90CF9008951F920F9294
:100140000FB60F9211248F939F93AF93BF9380911B
:100150006A0090916B00A0916C00B0916D00449783
:10016000A105B105A0F080916A0090916B00A0916B
:100170006C00B0916D004497A109B10980936A00A9
:1001800090936B00A0936C00B0936D0008C0109228
:100190006A0010926B0010926C0010926D00BF917B
:1001A000AF919F918F910F900FBE0F901F90189558
:1001B000FC01662361F080819181803127E2920702
:1001C00018F4019691838083138212820BC082817E
:1001D0009381803127E2920718F4019693838283FA
:1001E0001182108280819181813921E0920750F043
:1001F000893E934018F481E090E002C082E090E0F4
:100200009583848382819381893C910528F0848140
:10021000958115821482089580E090E00895A59A52
:10022000A49AA39AA19AA09A889A899ABD9ABC9AEC
:10023000AD9AAC9AAB9AA99AA89A909A919AC598B5
:10024000C49808951F93CF93DF932FEF84E39CE02E
:10025000215080409040E1F700C0000018DF2FEFF0
:1002600084E39CE0215080409040E1F700C0000012
:1002700011E0C1E0D0E08091A400811134C060B3EE
:1002800063FB662760F988E990E092DF892B59F1DA
:100290001093A400209179004091780030E0AAE00A
:1002A000B0E05AD1DC01CB01840F911DA11DB11D1D
:1002B00080936A0090936B00A0936C00B0936D00E4
:1002C00020916A0030916B0040916C0050916D005C
:1002D000A8EEB3E04DD160936A0070936B008093F9
:1002E0006C0090936D0080917B00882319F090E062
:1002F000019702C086E090E0FC01EE0FFF1F8E0F19
:100300009F1FFC01E259FF4FA785B0892C91CE01B8
:10031000018802C0880F991F0A94E2F7822B8C9300
:1003200080917B00811135C0E0917A00F0E0CF012F
:10033000880F991FE80FF91FE259FF4FA4A1B5A13B
:100340002C91CE0106A002C0880F991F0A94E2F7F3
:10035000822B8C9380917A00882319F090E001978A
:1003600002C081E090E0FC01EE0FFF1F8E0F9F1F87
:10037000FC01E259FF4FA4A1B5A19C919E0106A0EA
:1003800002C0220F331F0A94E2F7822F809589233F
:100390008C93E0917A00F0E0E259FF4FA285AA30F9
:1003A00090F420917B00283070F4E22FF0E0B0E070
:1003B000A259BF4F8C9190E002C0959587952A95E0
:1003C000E2F780FD2EC080917B008F5F873018F4AC
:1003D00080937B000CC010927B0080917A008F5F2D
:1003E000823018F480937A0002C010927A008091D3
:1003F000A400811102C051DE3ECF73DE80916A00FD
:1004000090916B00A0916C00B0916D00892B8A2BAC
:100410008B2B09F030CF80E090E0DF91CF911F91DE
:100420000895CF01880F991FE80FF91FE259FF4F78
:10043000A785B0899C919E01018802C0220F331FBD
:100440000A94E2F7822F809589238C93BCCFEEE942
:10045000F0E0118210821382128215821482E8E980
:10046000F0E01182108213821282158214828AE0D7
:10047000E0E6F0E0AEE6B0E001900D928A95E1F79B
:10048000EEE6F0E021E0228782E08387148615867D
:10049000168685E390E0908B878745E0418B938BB0
:1004A000828B34E0348B968B858B53E0578B918F06
:1004B000808F228F948F838F158E82E390E0978FA9
:1004C000868F10A292A381A323A388E390E095A333
:1004D00084A346A390A787A331A70895A1E21A2E6B
:1004E000AA1BBB1BFD010DC0AA1FBB1FEE1FFF1FD8
:1004F000A217B307E407F50720F0A21BB30BE40B28
:10050000F50B661F771F881F991F1A9469F760956E
:100510007095809590959B01AC01BD01CF01089528
:10052000052E97FB16F400940FD057FD05D0D6DFAB
:1005300007FC02D046F408C05095409530952195AF
:100540003F4F4F4F5F4F08959095809570956195FF
:100550007F4F8F4F9F4F0895A29FB001B39FC0015F
:10056000A39F01D0B29F700D811D1124911D08958C
:10057000F3DFA59F900DB49F900DA49F800D911D5A
:1005800011240895EE0FFF1F0590F491E02D0994BA
:04059000F894FFCF0D
:0A0594003F065B4F666D7D077F6F29
:00000001FF
