:1000000013C037C036C08BC134C033C032C031C01A
:1000100030C02FC02EC02DC02CC02BC02AC029C07C
:1000200028C027C026C0B60311241FBECFE5D4E0E8
:10003000DEBFCDBF10E0A0E6B0E0E2EAF7E002C02C
:1000400005900D92A83DB107D9F721E0A8EDB0E0E9
:1000500001C01D92A031B207E1F710E0C4E1D0E089
:1000600003C02197FE0195D3C331D107D1F747D300
:1000700096C3C6CFFB0111821082E82FF0E0E05753
:10008000FF4F8081982F9F70FA019083983098F4E9
:10009000807F90E034E0959587953A95E1F784303C
:1000A00050F4880F991FFC01E05AFF4F8081918125
:1000B000FB01918380830895CF93DF9300D01F923B
:1000C000CDB7DEB71A82198294E69B83AE014D5FED
:1000D0005F4FBE016F5F7F4FCDDF89819A810097AF
:1000E00041F0DC01ED91FC910190F081E02D6B81FC
:1000F00009950F900F900F90DF91CF910895CF93B6
:10010000DF9300D01F92CDB7DEB71A82198294E632
:100110009B83AE014D5F5F4FBE016F5F7F4FAADFD4
:1001200089819A81009741F0DC01ED91FC91028078
:10013000F381E02D6B8109950F900F900F90DF9167
:10014000CF910895CF93DF9300D01F92CDB7DEB744
:100150001A82198294E69B83AE014D5F5F4FBE0108
:100160006F5F7F4F87DF89819A81009749F0DC01BB
:10017000ED91FC910480F581E02D6B81099501C022
:1001800080E00F900F900F90DF91CF910895CF9363
:10019000DF9300D01F92CDB7DEB71A82198294E6A2
:1001A0009B83AE014D5F5F4FBE016F5F7F4F62DF8C
:1001B00089819A81009741F0DC01ED91FC910680E4
:1001C000F781E02D6B8109950F900F900F90DF91D3
:1001D000CF910895CF93DF9300D01F92CDB7DEB7B4
:1001E0001A82198294E69B83AE014D5F5F4FBE0178
:1001F0006F5F7F4F3FDF89819A81009741F0DC017B
:10020000ED91FC910084F185E02D6B8109950F90B3
:100210000F900F90DF91CF91089589EF83BD85B541
:10022000886085BD89B7806889BF85B5826085BDD6
:10023000789408950F931F93CF93DF9388E13CDF69
:1002400089E13ADF83E15BDFC5EED0E08E01F801A2
:1002500081918F0154DFF0E00C3E1F07C1F78091C0
:10026000EC004DDF8091ED004ADF8091EE0047DF2A
:100270008991B0DF80E0CC3ED807D1F78091EC00C7
:1002800086DF8091ED0083DF8091EE0080DFDF91DB
:10029000CF911F910F91C1CF80910F0181113EC06D
:1002A00089E150DF61E0811101C060E083E091E00D
:1002B00049D1892B71F081E080930F011092E20007
:1002C0001092D8001092D9001092DA001092DB0040
:1002D000089588E137DF61E0811101C060E089E0C5
:1002E00091E030D18130910569F4E091E000F0E0D7
:1002F000E452FF4F80818F5F8A3010F4808308952D
:1003000010820895029751F48091E0008F5F83304E
:1003100018F48093E00008951092E00008951F9271
:100320000F920FB60F9211242F938F939F93AF9339
:10033000BF9380910F01882309F448C08091D800B1
:100340009091D900A091DA00B091DB00843F9140F8
:10035000A105B105A0F48091D8009091D900A09199
:10036000DA00B091DB000196A11DB11D8093D80089
:100370009093D900A093DA00B093DB0027C01092CD
:10038000D8001092D9001092DA001092DB00809110
:10039000DC00882321F081508093DC0017C080911D
:1003A000DD00882339F099E09093DC008150809340
:1003B000DD000CC08091DE00882341F099E090932D
:1003C000DC009093DD0081508093DE00BF91AF91FF
:1003D0009F918F912F910F900FBE0F901F901895A6
:1003E000CF93C4E183E1D3DE8FE493EC0197F1F77F
:1003F00000C0000083E1EEDE9FE32EE785E0915030
:1004000020408040E1F700C00000C15059F7CF9173
:10041000089527B381E090E001C0880F6A95EAF75C
:10042000822B87BB089527B381E090E001C0880F3D
:100430006A95EAF78095822387BB089526B381E009
:1004400090E001C0880F6A95EAF78223089528B3E7
:1004500081E090E001C0880F6A95EAF7822B88BBA3
:10046000089528B381E090E001C0880F6A95EAF70B
:100470008095822388BB089524B381E090E001C079
:10048000880F6A95EAF7822B84BB089524B381E034
:1004900090E001C0880F6A95EAF78095822384BBBB
:1004A000089523B381E090E001C0880F6A95EAF7D0
:1004B0008223089525B381E090E001C0880F6A95FA
:1004C000EAF7822B85BB089525B381E090E001C057
:1004D000880F6A95EAF78095822385BB089521B33A
:1004E00081E090E001C0880F6A95EAF7822B81BB1A
:1004F000089521B381E090E001C0880F6A95EAF782
:100500008095822381BB089520B381E090E001C0F3
:10051000880F6A95EAF78223089522B381E090E07C
:1005200001C0880F6A95EAF7822B82BB089522B337
:1005300081E090E001C0880F6A95EAF780958223F8
:1005400082BB0895FC01662361F080819181803136
:1005500027E2920718F40196918380831382128216
:100560000BC082819381803127E2920718F40196B3
:1005700093838283118210828081918185369105D7
:1005800050F08132934018F481E090E002C082E0A4
:1005900090E095838483828193818536910528F04C
:1005A0008481958115821482089580E090E00895F9
:1005B000CF93DF93EC018091700090917100A09136
:1005C000720088839983AA831B821C8281E08D83B9
:1005D0008E8318861F8287E0E3E7F0E0DE0119963C
:1005E00001900D928A95E1F780917A0090917B00BD
:1005F000A0917C00888B998BAA8B8AE0EDE7F0E0D4
:10060000DE01539601900D928A95E1F78AE0E7E8C2
:10061000F0E0DE015D9601900D928A95E1F7DF91A1
:10062000CF9108951F93CF93DF93EC019E818B812F
:10063000992321F19D812F813885992329F02A3F23
:10064000310548F01D8207C0243F314020F091E081
:100650009D8318861F822F813885243F91E03907BA
:1006600028F42F5F3F4F38872F8302C018861F82E0
:100670009C81981303C09D81992349F1282F30E074
:10068000FE01E20FF31F10811A3050F5882319F094
:100690002150310902C022E030E0FE01E20FF31FD9
:1006A000808975DDFE01E10FF11D838980FDC09A0F
:1006B00080FFC09882B3958D9B7E8471892B82BB0D
:1006C0008B81FE01E80FF11D808984DD09C088233C
:1006D00079F090E00197FE01E80FF91F808957DD5E
:1006E0008B818F5F833010F48B8305C01B8203C026
:1006F00082E090E0F0CFDF91CF911F91089587EADB
:1007000091E60197F1F700C0000094DD87EA91E6D9
:100710000197F1F700C0000081E08093E2008CEDCA
:1007200090E080DF80910F018823F1F08091DC0060
:100730008111F5CF8091DD008111F1CF8091DE0034
:100740008111EDCF8CED90E06DDF4ADE8091EC0001
:100750001EDD8091ED001BDD8091EE0018DD18BAE2
:1007600012BA80E090E0089597DDD9CFE9E0F1E09A
:10077000118210821382128215821482E3E0F1E06A
:100780001182108213821282158214828CED90E005
:100790000FCFEE0FFF1F0590F491E02D0994F89410
:0207A000FFCF89
:1007A2006E006C006A006800CD00BF00B100B100AD
:1007B2000102000E020B0C0D030504060A010001E2
:1007C20001000101010101E321C9692B6AEA21EB60
:1007D2006B2630313233340000161735363710119C
:1007E20012131415000000202122232425000000EA
:1007F20000130209021E0227023102000000004615
:10080200023C0251025A0264020000000079026FA7
:080812000284028D029702002E
:00000001FF
