:1000000013C037C036C07FC134C033C032C031C026
:1000100030C02FC02EC02DC02CC02BC02AC029C07C
:1000200028C027C026C09D0311241FBECFE5D4E001
:10003000DEBFCDBF10E0A0E6B0E0E0E7F7E002C031
:1000400005900D92A83DB107D9F721E0A8EDB0E0E9
:1000500001C01D92AD30B207E1F710E0C4E1D0E07D
:1000600003C02197FE017CD3C331D107D1F7ECD275
:100070007DC3C6CFFB0111821082E82FF0E0E0576C
:10008000FF4F8081982F9F70FA019083983098F4E9
:10009000807F90E034E0959587953A95E1F784303C
:1000A00050F4880F991FFC01E05AFF4F8081918125
:1000B000FB01918380830895CF93DF9300D01F923B
:1000C000CDB7DEB71A82198294E69B83AE014D5FED
:1000D0005F4FBE016F5F7F4FCDDF89819A810097AF
:1000E00041F0DC01ED91FC910190F081E02D6B81FC
:1000F00009950F900F900F90DF91CF910895CF93B6
:10010000DF9300D01F92CDB7DEB71A82198294E632
:100110009B83AE014D5F5F4FBE016F5F7F4FAADFD4
:1001200089819A81009741F0DC01ED91FC91028078
:10013000F381E02D6B8109950F900F900F90DF9167
:10014000CF910895CF93DF9300D01F92CDB7DEB744
:100150001A82198294E69B83AE014D5F5F4FBE0108
:100160006F5F7F4F87DF89819A81009749F0DC01BB
:10017000ED91FC910480F581E02D6B81099501C022
:1001800080E00F900F900F90DF91CF910895CF9363
:10019000DF9300D01F92CDB7DEB71A82198294E6A2
:1001A0009B83AE014D5F5F4FBE016F5F7F4F62DF8C
:1001B00089819A81009741F0DC01ED91FC910680E4
:1001C000F781E02D6B8109950F900F900F90DF91D3
:1001D000CF910895CF93DF9300D01F92CDB7DEB7B4
:1001E0001A82198294E69B83AE014D5F5F4FBE0178
:1001F0006F5F7F4F3FDF89819A81009741F0DC017B
:10020000ED91FC910084F185E02D6B8109950F90B3
:100210000F900F90DF91CF91089589EF83BD85B541
:10022000886085BD89B7806889BF85B5826085BDD6
:10023000789408950F931F93CF93DF9388E13CDF69
:1002400089E13ADF83E15BDFC1EED0E08E01F801A6
:1002500081918F0154DFF0E0083E1F07C1F78091C4
:10026000E8004DDF8091E9004ADF8091EA0047DF36
:100270008991B0DF80E0C83ED807D1F78091E800CF
:1002800086DF8091E90083DF8091EA0080DFDF91E3
:10029000CF911F910F91C1CF89E154DF61E08111AE
:1002A00001C060E08FEF90E0F2D0892B31F081E067
:1002B00080930C011092DE00089588E143DF61E035
:1002C000811101C060E085E091E0E1D081309105CD
:1002D00069F4E091DC00F0E0E852FF4F80818F5F2D
:1002E0008A3010F48083089510820895029751F4A3
:1002F0008091DC008F5F833018F48093DC000895D8
:100300001092DC0008951F920F920FB60F921124E5
:100310008F9381E080930B018F910F900FBE0F9010
:100320001F901895CF93C4E188ED90E020D183E130
:100330002EDF8FE493EC0197F1F700C0000083E11A
:1003400049DF9FE32EE785E0915020408040E1F7B0
:1003500000C00000C15041F7CF91089527B381E05C
:1003600090E001C0880F6A95EAF7822B87BB089559
:1003700027B381E090E001C0880F6A95EAF7809585
:10038000822387BB089526B381E090E001C0880FE7
:100390006A95EAF78223089528B381E090E001C0CE
:1003A000880F6A95EAF7822B88BB089528B381E00D
:1003B00090E001C0880F6A95EAF78095822388BB98
:1003C000089524B381E090E001C0880F6A95EAF7B0
:1003D000822B84BB089524B381E090E001C0880F94
:1003E0006A95EAF78095822384BB089523B381E060
:1003F00090E001C0880F6A95EAF78223089525B33B
:1004000081E090E001C0880F6A95EAF7822B85BBF6
:10041000089525B381E090E001C0880F6A95EAF75E
:100420008095822385BB089521B381E090E001C0CF
:10043000880F6A95EAF7822B81BB089521B381E08A
:1004400090E001C0880F6A95EAF78095822381BB0E
:10045000089520B381E090E001C0880F6A95EAF723
:100460008223089522B381E090E001C0880F6A954D
:10047000EAF7822B82BB089522B381E090E001C0AD
:10048000880F6A95EAF78095822382BB0895FC0164
:10049000662361F080819181803127E2920718F410
:1004A000019691838083138212820BC08281938193
:1004B000803127E2920718F4019693838283118298
:1004C0001082808191818536910550F08132934070
:1004D00018F481E090E002C082E090E0958384838C
:1004E000828193818536910528F0848195811582DA
:1004F0001482089580E090E00895CF93DF93EC019B
:100500008091700090917100A0917200888399830E
:10051000AA831B821C8281E08D838E8318861F82B2
:1005200087E0E3E7F0E0DE01199601900D928A95ED
:10053000E1F780917A0090917B00A0917C00888BFC
:10054000998BAA8B8AE0EDE7F0E0DE0153960190EB
:100550000D928A95E1F78AE0E7E8F0E0DE015D962A
:1005600001900D928A95E1F7DF91CF9108951F9345
:10057000CF93DF93EC019E818B81992321F19D81A3
:100580002F813885992329F02A3F310548F01D82B3
:1005900007C0243F314020F091E09D8318861F82E0
:1005A0002F813885243F91E0390728F42F5F3F4F92
:1005B00038872F8302C018861F829C81981303C03E
:1005C0009D81992349F1282F30E0FE01E20FF31FAE
:1005D00010811A3050F5882319F02150310902C0DA
:1005E00022E030E0FE01E20FF31F8089D0DDFE0142
:1005F000E10FF11D838980FDC09A80FFC09882B30E
:10060000958D9B7E8471892B82BB8B81FE01E80FC7
:10061000F11D8089DFDD09C0882379F090E0019722
:10062000FE01E80FF91F8089B2DD8B818F5F833077
:1006300010F48B8305C01B8203C082E090E0F0CFF2
:10064000DF91CF911F910895CF92DF92EF92FF92A9
:10065000CF9387EA91E60197F1F700C00000EADD49
:1006600087EA91E60197F1F700C0000081E08093EE
:10067000DE0080910C01882329F0C12CD12C760159
:10068000C9E00FC088ED90E072DF06DEF2CF809106
:10069000D800882341F181508093D800C12CD12CFF
:1006A00076018091D800811108C08091D900811114
:1006B00004C08091DA00882361F188ED90E057DF73
:1006C00080910B01882369F310920B0194EFC916F6
:1006D00091E0D906E104F104D0F68FEFC81AD80AE8
:1006E000E80AF80ADECF8091D900882331F0C09360
:1006F000D80081508093D900D1CF8091DA0088232F
:1007000069F2C093D800C093D90081508093DA0079
:10071000C5CF08DE8091E8003ADD8091E90037DD41
:100720008091EA0034DD18BA12BA80E090E0CF91EF
:10073000FF90EF90DF90CF900895E5E0F1E0118217
:1007400010821382128215821482EFEFF0E0118280
:100750001082138212821582148288ED90E0CDCE31
:10076000EE0FFF1F0590F491E02D0994F894FFCF50
:100770006E006C006A006800CD00BF00B100B100DF
:100780000102000E020B0C0D030504060A01000114
:1007900001000101010101E321C9692B6AEA21EB92
:1007A0006B263031323334000016173536371011CE
:1007B000121314150000002021222324250000001C
:1007C00000B801AE01C301CC01D60100000000EB6E
:1007D00001E101F601FF010902000000001E021400
:0807E00002290232023C020072
:00000001FF
