:1000000013C037C036C06EC134C033C032C031C037
:1000100030C02FC02EC02DC02CC02BC02AC029C07C
:1000200028C027C026C0BD0311241FBECFE5D4E0E1
:10003000DEBFCDBF10E0A0E6B0E0E0EBF7E002C02D
:1000400005900D92A83DB107D9F721E0A8EDB0E0E9
:1000500001C01D92A031B207E1F710E0C4E1D0E089
:1000600003C02197FE019CD3C331D107D1F7BDD284
:100070009DC3C6CFFB0111821082E82FF0E0E0574C
:10008000FF4F8081982F9F70FA019083983098F4E9
:10009000807F90E034E0959587953A95E1F784303C
:1000A00050F4880F991FFC01E05AFF4F8081918125
:1000B000FB01918380830895CF93DF9300D01F923B
:1000C000CDB7DEB71A82198294E69B83AE014D5FED
:1000D0005F4FBE016F5F7F4FCDDF89819A810097AF
:1000E00041F0DC01ED91FC910190F081E02D6B81FC
:1000F00009950F900F900F90DF91CF910895CF93B6
:10010000DF9300D01F92CDB7DEB71A82198294E632
:100110009B83AE014D5F5F4FBE016F5F7F4FAADFD4
:1001200089819A81009741F0DC01ED91FC91028078
:10013000F381E02D6B8109950F900F900F90DF9167
:10014000CF910895CF93DF9300D01F92CDB7DEB744
:100150001A82198294E69B83AE014D5F5F4FBE0108
:100160006F5F7F4F87DF89819A81009749F0DC01BB
:10017000ED91FC910480F581E02D6B81099501C022
:1001800080E00F900F900F90DF91CF910895CF9363
:10019000DF9300D01F92CDB7DEB71A82198294E6A2
:1001A0009B83AE014D5F5F4FBE016F5F7F4F62DF8C
:1001B00089819A81009741F0DC01ED91FC910680E4
:1001C000F781E02D6B8109950F900F900F90DF91D3
:1001D000CF910895CF93DF9300D01F92CDB7DEB7B4
:1001E0001A82198294E69B83AE014D5F5F4FBE0178
:1001F0006F5F7F4F3FDF89819A81009741F0DC017B
:10020000ED91FC910084F185E02D6B8109950F90B3
:100210000F900F90DF91CF91089589EF83BD85B541
:10022000886085BD89B7806889BF85B5826085BDD6
:10023000789408950F931F93CF93DF9388E13CDF69
:1002400089E13ADF83E15BDFC5EED0E08E01F801A2
:1002500081918F0154DFF0E00C3E1F07C1F78091C0
:10026000EC004DDF8091ED004ADF8091EE0047DF2A
:100270008991B0DF80E0CC3ED807D1F78091EC00C7
:1002800086DF8091ED0083DF8091EE0080DFDF91DB
:10029000CF911F910F91C1CF88E154DF61E08111AF
:1002A00001C060E089E091E030D18130910569F4CE
:1002B000E091E000F0E0E452FF4F80818F5F8A30F0
:1002C00010F48083089510820895029751F480916C
:1002D000E0008F5F833018F48093E000089510925F
:1002E000E00008951F920F920FB60F9211242F93E2
:1002F0008F939F93AF93BF9380910F01882309F44D
:1003000048C08091D8009091D900A091DA00B091B6
:10031000DB00843F9140A105B105A0F48091D80095
:100320009091D900A091DA00B091DB000196A11D57
:10033000B11D8093D8009093D900A093DA00B093B8
:10034000DB0027C01092D8001092D9001092DA007A
:100350001092DB008091DC00882321F08150809393
:10036000DC0017C08091DD00882339F099E090937C
:10037000DC0081508093DD000CC08091DE0088237A
:1003800041F099E09093DC009093DD0081508093E0
:10039000DE00BF91AF919F918F912F910F900FBE73
:1003A0000F901F901895CF93C4E183E1F0DE8FE4A6
:1003B00093EC0197F1F700C0000083E10BDF9FE3AE
:1003C0002EE785E0915020408040E1F700C000001A
:1003D000C15059F7CF91089527B381E090E001C053
:1003E000880F6A95EAF7822B87BB089527B381E0CF
:1003F00090E001C0880F6A95EAF78095822387BB59
:10040000089526B381E090E001C0880F6A95EAF76D
:100410008223089528B381E090E001C0880F6A9597
:10042000EAF7822B88BB089528B381E090E001C0F1
:10043000880F6A95EAF78095822388BB089524B3D4
:1004400081E090E001C0880F6A95EAF7822B84BBB7
:10045000089524B381E090E001C0880F6A95EAF71F
:100460008095822384BB089523B381E090E001C08E
:10047000880F6A95EAF78223089525B381E090E01A
:1004800001C0880F6A95EAF7822B85BB089525B3D2
:1004900081E090E001C0880F6A95EAF78095822399
:1004A00085BB089521B381E090E001C0880F6A9573
:1004B000EAF7822B81BB089521B381E090E001C06F
:1004C000880F6A95EAF78095822381BB089520B34F
:1004D00081E090E001C0880F6A95EAF782230895D1
:1004E00022B381E090E001C0880F6A95EAF7822B81
:1004F00082BB089522B381E090E001C0880F6A9525
:10050000EAF78095822382BB0895FC01662361F09F
:1005100080819181803127E2920718F401969183BE
:100520008083138212820BC082819381803127E203
:10053000920718F40196938382831182108280813E
:1005400091818536910550F08132934018F481E015
:1005500090E002C082E090E0958384838281938161
:100560008536910528F0848195811582148208953D
:1005700080E090E00895CF93DF93EC0180917000CC
:1005800090917100A091720088839983AA831B8245
:100590001C8281E08D838E8318861F8287E0E3E7CB
:1005A000F0E0DE01199601900D928A95E1F78091B5
:1005B0007A0090917B00A0917C00888B998BAA8B0C
:1005C0008AE0EDE7F0E0DE01539601900D928A9506
:1005D000E1F78AE0E7E8F0E0DE015D9601900D9238
:1005E0008A95E1F7DF91CF910895CF93DF9387EA62
:1005F00091E60197F1F700C000001CDE87EA91E662
:100600000197F1F700C00000D1E080910F01811146
:1006100017C089E197DD61E0811101C060E083E0EE
:1006200091E073DF892B61F0D0930F011092E2000B
:100630001092D8001092D9001092DA001092DB00CC
:100640009091E2008091DF00992309F46BC09091B2
:10065000E1002091E3003091E400992331F02A3F3A
:10066000310560F01092E10009C0243F314030F0C4
:10067000D093E1001092E4001092E3002091E30097
:100680003091E400243F91E0390738F42F5F3F4F69
:100690003093E4002093E30004C01092E400109231
:1006A000E3009091E00098133DC09091E10091111A
:1006B00039C08823A1F190E00197FC01E452FF4F7B
:1006C000808965DD8091DF008F5F833018F480932F
:1006D000DF0002C01092DF0080910F018823E9F053
:1006E0008091DC00811191CF8091DD0081118DCF4F
:1006F0008091DE00811189CF56DE8091EC0047DDCC
:100700008091ED0044DD8091EE0041DD18BA12BA0F
:1007100080E090E0DF91CF910895BEDD76CF82E05A
:1007200090E0CBCF282F30E0F901E452FF4FC08199
:10073000CA3040F6882319F02150310902C022E066
:1007400030E0F901E452FF4F808921DDEC2FF0E029
:10075000E452FF4F838980FDC09A80FFC09882B326
:10076000958D9B7E8471892B82BBE091DF00F0E048
:10077000E452FF4F80892EDDA5CFE9E0F1E0118240
:1007800010821382128215821482E3E0F1E011825A
:10079000108213821282158214828CED90E0EBCECF
:1007A000EE0FFF1F0590F491E02D0994F894FFCF10
:1007B0006E006C006A006800CD00BF00B100B1009F
:1007C0000102000E020B0C0D030504060A010001D4
:1007D00001000101010101E321C9692B6AEA21EB52
:1007E0006B2630313233340000161735363710118E
:1007F00012131415000000202122232425000000DC
:1008000000F601EC0101020A0214020000000029B6
:10081000021F0234023D024702000000005C025247
:0808200002670270027A020077
:00000001FF
