:1000000013C037C036C0B2C134C033C032C031C0F3
:1000100030C02FC02EC02DC02CC02BC02AC029C07C
:1000200028C027C026C0060411241FBECFE5D4E097
:10003000DEBFCDBF10E0A0E6B0E0EAEEF8E002C01F
:1000400005900D92A83DB107D9F721E0A8EDB0E0E9
:1000500001C01D92A031B207E1F710E0C4E1D0E089
:1000600003C02197FE0139D4C331D107D1F7CED2D5
:100070003AC4C6CFFB0111821082E82FF0E0E057AE
:10008000FF4F8081982F9F70FA019083983098F4E9
:10009000807F90E034E0959587953A95E1F784303C
:1000A00050F4880F991FFC01E05AFF4F8081918125
:1000B000FB01918380830895CF93DF9300D01F923B
:1000C000CDB7DEB71A82198294E69B83AE014D5FED
:1000D0005F4FBE016F5F7F4FCDDF89819A810097AF
:1000E00041F0DC01ED91FC910190F081E02D6B81FC
:1000F00009950F900F900F90DF91CF910895CF93B6
:10010000DF9300D01F92CDB7DEB71A82198294E632
:100110009B83AE014D5F5F4FBE016F5F7F4FAADFD4
:1001200089819A81009741F0DC01ED91FC91028078
:10013000F381E02D6B8109950F900F900F90DF9167
:10014000CF910895CF93DF9300D01F92CDB7DEB744
:100150001A82198294E69B83AE014D5F5F4FBE0108
:100160006F5F7F4F87DF89819A81009749F0DC01BB
:10017000ED91FC910480F581E02D6B81099501C022
:1001800080E00F900F900F90DF91CF910895CF9363
:10019000DF9300D01F92CDB7DEB71A82198294E6A2
:1001A0009B83AE014D5F5F4FBE016F5F7F4F62DF8C
:1001B00089819A81009741F0DC01ED91FC910680E4
:1001C000F781E02D6B8109950F900F900F90DF91D3
:1001D000CF910895CF93DF9300D01F92CDB7DEB7B4
:1001E0001A82198294E69B83AE014D5F5F4FBE0178
:1001F0006F5F7F4F3FDF89819A81009741F0DC017B
:10020000ED91FC910084F185E02D6B8109950F90B3
:100210000F900F90DF91CF9108958CE783BD85B546
:10022000886085BD89B7806889BF85B5826085BDD6
:10023000789408950F931F93CF93DF9388E13CDF69
:1002400089E13ADF83E15BDFC5EED0E08E01F801A2
:1002500081918F0154DFF0E00C3E1F07C1F78091C0
:10026000EC004DDF8091ED004ADF8091EE0047DF2A
:100270008991B0DF80E0CC3ED807D1F78091EC00C7
:1002800086DF8091ED0083DF8091EE0080DFDF91DB
:10029000CF911F910F91C1CF88E154DF61E08111AF
:1002A00001C060E089E091E041D18130910569F4BD
:1002B000E091E000F0E0E452FF4F80818F5F8A30F0
:1002C00010F48083089510820895029751F480916C
:1002D000E0008F5F833018F48093E000089510925F
:1002E000E00008958F929F92AF92BF92CF92DF92DB
:1002F000EF92FF92CF93DF936091D8007091D90075
:100300008091DA009091DB0028EE33E040E050E08D
:1003100090D249015A01CCEDD0E08AE0C82ED12C10
:10032000E12CF12CCA01B901A7019601A4D268837E
:10033000CA01B901A70196019ED26983C501B40122
:1003400024E630E040E050E096D2CA01B901A701AE
:10035000960191D26A83DF91CF91FF90EF90DF9069
:10036000CF90BF90AF909F908F9008951F920F9263
:100370000FB60F9211248F939F93AF93BF938091E9
:10038000D8009091D900A091DA00B091DB00892BC0
:100390008A2B8B2B99F08091D8009091D900A09155
:1003A000DA00B091DB000197A109B1098093D80070
:1003B0009093D900A093DA00B093DB00BF91AF9186
:1003C0009F918F910F900FBE0F901F901895CF9314
:1003D000CFE083E1DCDE87E893E10197F1F700C02D
:1003E000000083E1F7DE87EC9FEA0197F1F700C098
:1003F0000000C15071F7CF91089527B381E090E0DC
:1004000001C0880F6A95EAF7822B87BB089527B34E
:1004100081E090E001C0880F6A95EAF78095822319
:1004200087BB089526B381E090E001C0880F6A95EC
:10043000EAF78223089528B381E090E001C0880F95
:100440006A95EAF7822B88BB089528B381E090E093
:1004500001C0880F6A95EAF78095822388BB0895CA
:1004600024B381E090E001C0880F6A95EAF7822BFF
:1004700084BB089524B381E090E001C0880F6A95A1
:10048000EAF78095822384BB089523B381E090E04E
:1004900001C0880F6A95EAF78223089525B381E0A9
:1004A00090E001C0880F6A95EAF7822B85BB08951A
:1004B00025B381E090E001C0880F6A95EAF7809546
:1004C000822385BB089521B381E090E001C0880FAD
:1004D0006A95EAF7822B81BB089521B381E090E011
:1004E00001C0880F6A95EAF78095822381BB089541
:1004F00020B381E090E001C0880F6A95EAF782237B
:10050000089522B381E090E001C0880F6A95EAF770
:10051000822B82BB089522B381E090E001C0880F56
:100520006A95EAF78095822382BB0895FC016623D1
:1005300061F080819181803127E2920718F4019661
:1005400091838083138212820BC0828193818031D8
:1005500027E2920718F40196938382831182108216
:10056000808191818536910550F08132934018F455
:1005700081E090E002C082E090E0958384838281F4
:1005800093818536910528F08481958115821482A6
:10059000089580E090E00895CF93DF93EC0180917F
:1005A000700090917100A091720088839983AA8352
:1005B0001B821C8281E08D838E8318861F8287E0D8
:1005C000E3E7F0E0DE01199601900D928A95E1F7DC
:1005D00080917A0090917B00A0917C00888B998B10
:1005E000AA8B8AE0EDE7F0E0DE01539601900D92D0
:1005F0008A95E1F78AE0E7E8F0E0DE015D96019098
:100600000D928A95E1F7DF91CF910895CF92DF9215
:10061000EF92FF92CF93DF9387EA91E60197F1F78C
:1006200000C0000007DE87EA91E60197F1F700C0FD
:100630000000D1E080910F01811145C089E182DD88
:1006400061E0811101C060E083E091E06FDF892B00
:10065000D1F1D0930F011092E2002091DE00409181
:10066000DD0030E0A4E6B0E022D16B017C01242F54
:1006700030E0AAE0B0E01BD1DC01CB018C0D9D1D68
:10068000AE1DBF1D2091DC00820F911DA11DB11D6B
:100690008093D8009093D900A093DA00B093DB0048
:1006A0002091D8003091D9004091DA005091DB00C0
:1006B000A8EEB3E008D16093D8007093D90080937E
:1006C000DA009093DB009091E2008091DF009923A3
:1006D00009F471C09091E1002091E3003091E400B1
:1006E000992331F02A3F310560F01092E10009C0F2
:1006F000243F314030F0D093E1001092E40010929A
:10070000E3002091E3003091E400243F91E03907B9
:1007100038F42F5F3F4F3093E4002093E30004C090
:100720001092E4001092E3009091E000981343C00F
:100730009091E10091113FC08823D1F190E00197A1
:10074000FC01E452FF4F808922DD8091DF008F5F42
:10075000833018F48093DF0002C01092DF00809194
:100760000F01811102C098DD65CFBCDD8091D800FA
:100770009091D900A091DA00B091DB00892B8A2BEF
:100780008B2B09F057CF23DE8091EC0000DD8091A8
:10079000ED00FDDC8091EE00FADC18BA12BA80E0C0
:1007A00090E0DF91CF91FF90EF90DF90CF90089590
:1007B00082E090E0C5CF282F30E0F901E452FF4FEE
:1007C000C081CA3010F6882319F02150310902C0C7
:1007D00022E030E0F901E452FF4F8089D8DCEC2FB1
:1007E000F0E0E452FF4F838980FDC09A80FFC098FB
:1007F00082B3958D9B7E8471892B82BBE091DF0053
:10080000F0E0E452FF4F8089E5DC9FCFE9E0F1E0C2
:10081000118210821382128215821482E3E0F1E0C9
:100820001182108213821282158214828CED90E064
:10083000B3CEA1E21A2EAA1BBB1BFD010DC0AA1F3D
:10084000BB1FEE1FFF1FA217B307E407F50720F039
:10085000A21BB30BE40BF50B661F771F881F991FB4
:100860001A9469F760957095809590959B01AC01FD
:10087000BD01CF010895052E97FB16F400940FD00B
:1008800057FD05D0D6DF07FC02D046F408C05095CE
:100890004095309521953F4F4F4F5F4F089590956C
:1008A0008095709561957F4F8F4F9F4F0895A29FC0
:1008B000B001B39FC001A39F01D0B29F700D811DF5
:1008C0001124911D0895F3DFA59F900DB49F900D05
:1008D000A49F800D911D11240895EE0FFF1F059018
:0A08E000F491E02D0994F894FFCF85
:1008EA006E006C006A006800CD00BF00B100B10064
:1008FA000102000E020B0C0D030504060A01000199
:10090A0001000101010101E321C9692B6AEA21EB16
:10091A006B26303132333400001617353637101152
:10092A0012131415000000202122232425000000A0
:10093A00000702FD0112021B022502000000003A14
:10094A0002300245024E025802000000006D0263A6
:08095A0002780281028B020009
:00000001FF
