:1000000013C037C036C0BEC134C033C032C031C0E7
:1000100030C02FC02EC02DC02CC02BC02AC029C07C
:1000200028C027C026C0930311241FBECFE5D4E00B
:10003000DEBFCDBF11E0A0E6B0E0EEEEF7E002C01B
:1000400005900D92A030B107D9F721E0A0E0B1E012
:1000500001C01D92A936B207E1F710E0C4E1D0E07B
:1000600003C02197FE01BBD3C331D107D1F7B2D270
:10007000BCC3C6CFCF93DF93E82FDB01EA01119613
:100080001C921E9284E68883ED31D8F489EF8E0F9E
:100090008230B8F08CEE8E0F833098F0E150FF0B79
:1000A000E05AFF4F80818F708883E081E295EF7086
:1000B000F0E0EE0FFF1FE058FF4F808191818D939C
:1000C0009C93DF91CF910895CF93DF9300D00F924F
:1000D000CDB7DEB71A82198294E69B83AE014D5FDD
:1000E0005F4FBE016F5F7F4FC5DF89819A810097A7
:1000F00069F0DC01ED91FC910190F081E02D6B81C4
:100100000F900F900F90DF91CF9109940F900F9067
:100110000F90DF91CF910895CF93DF9300D00F928E
:10012000CDB7DEB71A82198294E69B83AE014D5F8C
:100130005F4FBE016F5F7F4F9DDF89819A8100977E
:1001400069F0DC01ED91FC910280F381E02D6B817F
:100150000F900F900F90DF91CF9109940F900F9017
:100160000F90DF91CF910895CF93DF9300D00F923E
:10017000CDB7DEB71A82198294E69B83AE014D5F3C
:100180005F4FBE016F5F7F4F75DF89819A81009756
:1001900069F0DC01ED91FC910480F581E02D6B812B
:1001A0000F900F900F90DF91CF91099480E00F9006
:1001B0000F900F90DF91CF910895CF93DF9300D0F0
:1001C0000F92CDB7DEB71A82198294E69B83AE01F7
:1001D0004D5F5F4FBE016F5F7F4F4CDF89819A811A
:1001E000009769F0DC01ED91FC910680F781E02D2C
:1001F0006B810F900F900F90DF91CF9109940F902A
:100200000F900F90DF91CF910895CF93DF9300D09F
:100210000F92CDB7DEB71A82198294E69B83AE01A6
:100220004D5F5F4FBE016F5F7F4F24DF89819A81F1
:10023000009769F0DC01ED91FC910084F185E02DDF
:100240006B810F900F900F90DF91CF9109940F90D9
:100250000F900F90DF91CF9108958FB580688FBD7B
:100260008FB583608FBD8EB582608EBDE0915A01DF
:10027000F0E0EE0FFF1FEE5CFE4F808191819BBD91
:100280008ABD089580E183BD85B5886085BD89B745
:10029000806889BF85B5876085BD08950F931F93DA
:1002A000CF93DF938FE038DF83E036DF82E034DF07
:1002B0008EE00ADF8091620107DF80915B0104DF3D
:1002C000CAE0D1E08E01F80181918F0125DFF1E0D4
:1002D00001311F07C1F7809111011EDF80911201CA
:1002E0001BDF8091130118DF89918FDF81E0C1311D
:1002F000D807D1F78091110188DF809112015DDF6D
:10030000809113015ADFA9DFBDDF7894DF91CF918F
:100310001F910F91089580915A018F5F8431A8F445
:1003200080935A0180915A0190E0FC01EE0FFF1F6B
:10033000EE5CFE4F208131813BBD2ABD825E9E4F27
:10034000FC01608181E091E0FEC010925A01EACF89
:1003500080915A01882319F0815080935A0180912D
:100360005A0190E0FC01EE0FFF1FEE5CFE4F208172
:1003700031813BBD2ABD825E9E4FFC01608181E0E0
:1003800091E0E1C01F920F920FB60F9211242F93AC
:100390003F934F935F936F937F938F939F93AF930D
:1003A000BF93EF93FF938EE0DFDE882371F180919E
:1003B0000001811124C083E000DF809100018930B9
:1003C00008F582E0FADE809100018F5F80930001E2
:1003D00080910001823310F010920001FF91EF91A3
:1003E000BF91AF919F918F917F916F915F914F914D
:1003F0003F912F910F900FBE0F901F90189583E0A3
:1004000004DFDBCF82E001DFDECF83E0FEDE82E0CF
:10041000FCDEE4CF87B321E030E001C0220F6A9513
:10042000EAF7822B87BB089527B381E090E001C0F3
:10043000880F6A95EAF78095822387BB089586B373
:1004400021E030E001C0220F6A95EAF78223089587
:1004500088B321E030E001C0220F6A95EAF7822BD1
:1004600088BB089528B381E090E001C0880F6A95A9
:10047000EAF78095822388BB089584B321E030E0B9
:1004800001C0220F6A95EAF7822B84BB089524B33A
:1004900081E090E001C0880F6A95EAF78095822399
:1004A00084BB089583B321E030E001C0220F6A9538
:1004B000EAF78223089585B321E030E001C0220FDE
:1004C0006A95EAF7822B85BB089525B381E090E019
:1004D00001C0880F6A95EAF78095822385BB08954D
:1004E00081B321E030E001C0220F6A95EAF7822B48
:1004F00081BB089521B381E090E001C0880F6A9527
:10050000EAF78095822381BB089580B321E030E033
:1005100001C0220F6A95EAF78223089582B321E091
:1005200030E001C0220F6A95EAF7822B82BB089562
:1005300022B381E090E001C0880F6A95EAF78095C8
:10054000822382BB0895FC01862F663008F4608305
:100550002AE0622F38D1918336D192830895CF93C8
:10056000DF93EC01888100DE882311F189819A8173
:10057000803127E2920718F401969A8389831C82BE
:100580001B8289819A818531910538F081329340AF
:10059000D8F481E090E09E838D838B819C81459788
:1005A000B0F08D819E811E821D82DF91CF910895D2
:1005B0008B819C81803127E2920718F401969C83FD
:1005C0008B831A821982DDCF82E090E0E4CF90E045
:1005D00080E0EBCF63DE11E082E691E0C0DF0197BF
:1005E00099F599DE9091070180910401992309F40E
:1005F0003FC0209108013091090190910601992393
:1006000051F12835324010F0109206012091080176
:1006100030910901203BF4E03F0738F52F5F3F4F51
:10062000309309012093080190910501981320C08F
:100630009091060191111CC0811172C081E08F5F01
:100640009E4FFC01818957C08BE591E088DF0197BF
:1006500049F67EDEC7CF203B3440C0F2109306013E
:100660001092080110920901D1CF20E030E0D8CFDC
:10067000282F30E0F901EF5FFE4FC181CA30A8F5A5
:100680008823D9F1C90101978F5F9E4FFC018189B1
:1006900094DD8AE0C82E81E0D82EF12CE12CD0E048
:1006A000CC5EDE4FF60181916F01288130E00E2C87
:1006B00002C0359527950A94E2F720FF21C07DDD21
:1006C000FFEFEF1AFF0A87E0E816F10459F780916F
:1006D0001101909104019130A9F46FDDE0910401C2
:1006E000F0E0EF5FFE4F818990DD809111019091E4
:1006F0000401913049F461DD08C081E090E0C4CF8D
:1007000084DDDECF82DDEACF80DD809104018F5F62
:1007100080930401823008F45FCF109204015CCF13
:100720008150990B8CCFCF93DF93E2E6F1E084E028
:100730008083128211821482138216821582EBE565
:10074000F1E085E080831282118214821382168286
:10075000158284E1E8E8F0E0AEE1B1E001900D92AD
:100760008A95E1F788E2ECE9F0E0A2E3B1E00190DC
:100770000D928A95E1F710925A01C1E0D1E01B82F7
:100780001C8281E08D831E8218861F8287E0E4EC44
:10079000F0E0AAE0B1E001900D928A95E1F789E1DD
:1007A000888B82E1898B83E18A8B8AE0EBECF0E035
:1007B000A4E1B1E001900D928A95E1F761E0CE01EC
:1007C000DF91CF91C0CE991B79E004C0991F961795
:1007D00008F0961B881F7A95C9F780950895EE0F4B
:0E07E000FF1F0590F491E02D0994F894FFCFCF
:1007EE0026303132333400001617353637101112D9
:1007FE00131415000000202122232425D900E70020
:10080E00F5007C007E008000010203040506070847
:10081E00090A0C0E101214191E2328320A00320077
:10082E0064009600C800FA002C015E019001C2011E
:10083E00F401260258028A02BC02EE022003520381
:10084E008403B6031C1B1A181710113F065B4F6664
:10085E006D7D077F6F0000000014020A021F022840
:10086E000232020000000047023D0252025B0265A6
:10087E0002000000007A02700285028E02980200C9
:00000001FF
