:1000000013C037C036C095C134C033C032C031C010
:1000100030C02FC02EC02DC02CC02BC02AC029C07C
:1000200028C027C026C0A90311241FBECFE5D4E0F5
:10003000DEBFCDBF10E0A0E6B0E0EAE8F8E002C025
:1000400005900D92A23DB107D9F721E0A2EDB0E0F5
:1000500001C01D92A830B207E1F710E0C4E1D0E082
:1000600003C02197FE0109D4C331D107D1F783D250
:100070000AC4C6CFFB0111821082E82FF0E0E657D8
:10008000FF4F8081982F9F70FA019083983098F4E9
:10009000807F90E034E0959587953A95E1F784303C
:1000A00050F4880F991FFC01E05AFF4F8081918125
:1000B000FB01918380830895CF93DF9300D01F923B
:1000C000CDB7DEB71A82198294E69B83AE014D5FED
:1000D0005F4FBE016F5F7F4FCDDF89819A810097AF
:1000E00041F0DC01ED91FC910190F081E02D6B81FC
:1000F00009950F900F900F90DF91CF910895CF93B6
:10010000DF9300D01F92CDB7DEB71A82198294E632
:100110009B83AE014D5F5F4FBE016F5F7F4FAADFD4
:1001200089819A81009741F0DC01ED91FC91028078
:10013000F381E02D6B8109950F900F900F90DF9167
:10014000CF910895CF93DF9300D01F92CDB7DEB744
:100150001A82198294E69B83AE014D5F5F4FBE0108
:100160006F5F7F4F87DF89819A81009749F0DC01BB
:10017000ED91FC910480F581E02D6B81099501C022
:1001800080E00F900F900F90DF91CF910895CF9363
:10019000DF9300D01F92CDB7DEB71A82198294E6A2
:1001A0009B83AE014D5F5F4FBE016F5F7F4F62DF8C
:1001B00089819A81009741F0DC01ED91FC910680E4
:1001C000F781E02D6B8109950F900F900F90DF91D3
:1001D000CF910895CF93DF9300D01F92CDB7DEB7B4
:1001E0001A82198294E69B83AE014D5F5F4FBE0178
:1001F0006F5F7F4F3FDF89819A81009741F0DC017B
:10020000ED91FC910084F185E02D6B8109950F90B3
:100210000F900F90DF91CF9108958DE783BD85B545
:10022000886085BD89B7806889BF85B5846085BDD4
:10023000789408950F931F93CF93DF9388E13CDF69
:1002400089E13ADF83E15BDFCEEDD0E08E01F8019A
:1002500081918F0154DFF0E0053E1F07C1F78091C7
:10026000E5004DDF8091E6004ADF8991B3DF80E051
:10027000C53ED807D1F78091E50089DF8091E6007F
:1002800086DFDF91CF911F910F91C7CF88E15ADFB1
:1002900061E0811101C060E081E091E036D1813000
:1002A000910569F4E091D900F0E0EA52FF4F8081B6
:1002B0008F5F8A3010F4808308951082089502972A
:1002C00051F48091D9008F5F823018F48093D90067
:1002D00008951092D9000895CF92DF92EF92FF9285
:1002E000CF93DF936091D2007091D3008091D400BE
:1002F0009091D50028EE33E040E050E06AD2C6EDA0
:10030000D0E08AE0C82ED12CE12CF12CCA01B90131
:10031000A701960180D26883CA01B901A70196019D
:100320007AD26983DF91CF91FF90EF90DF90CF90E9
:1003300008951F920F920FB60F9211248F939F93DF
:10034000AF93BF938091D2009091D300A091D4003D
:10035000B091D500892B8A2B8B2BA1F08091D200F4
:100360009091D300A091D400B091D5000197A1093C
:10037000B1098093D2009093D300A093D400B0939E
:10038000D50008C01092D2001092D3001092D40071
:100390001092D500BF91AF919F918F910F900FBE9A
:1003A0000F901F901895CF93CFE083E1F0DE8FE39D
:1003B0009CE90197F1F700C0000083E10BDF9FEF9C
:1003C00024E684E0915020408040E1F700C0000026
:1003D000C15059F7CF91089527B381E090E001C053
:1003E000880F6A95EAF7822B87BB089527B381E0CF
:1003F00090E001C0880F6A95EAF78095822387BB59
:10040000089526B381E090E001C0880F6A95EAF76D
:100410008223089528B381E090E001C0880F6A9597
:10042000EAF7822B88BB089528B381E090E001C0F1
:10043000880F6A95EAF78095822388BB089524B3D4
:1004400081E090E001C0880F6A95EAF7822B84BBB7
:10045000089524B381E090E001C0880F6A95EAF71F
:100460008095822384BB089523B381E090E001C08E
:10047000880F6A95EAF78223089525B381E090E01A
:1004800001C0880F6A95EAF7822B85BB089525B3D2
:1004900081E090E001C0880F6A95EAF78095822399
:1004A00085BB089521B381E090E001C0880F6A9573
:1004B000EAF7822B81BB089521B381E090E001C06F
:1004C000880F6A95EAF78095822381BB089520B34F
:1004D00081E090E001C0880F6A95EAF782230895D1
:1004E00022B381E090E001C0880F6A95EAF7822B81
:1004F00082BB089522B381E090E001C0880F6A9525
:10050000EAF78095822382BB0895FC01662361F09F
:1005100080819181803127E2920718F401969183BE
:100520008083138212820BC082819381803127E203
:10053000920718F40196938382831182108280813E
:1005400091818536910550F08132934018F481E015
:1005500090E002C082E090E0958384838281938161
:100560008536910528F0848195811582148208953D
:1005700080E090E00895CF93DF932FEF80E792E043
:10058000215080409040E1F700C0000053DE2FEF83
:1005900080E792E0215080409040E1F700C00000E9
:1005A000D1E080910701811138C089E1CBDD61E0A4
:1005B000811101C060E08BEF90E0A7DF892B69F12A
:1005C000D09307011092DB002091D7004091D60014
:1005D00030E0AAE0B0E03BD1DC01CB01840F911DFB
:1005E000A11DB11D8093D2009093D300A093D4009D
:1005F000B093D5002091D2003091D3004091D40027
:100600005091D500A8EEB3E02ED16093D200709344
:10061000D3008093D4009093D5009091DB0080911B
:10062000D800992309F46AC09091DA002091DC0087
:100630003091DD00992331F02039314060F0109283
:10064000DA0009C02032334030F0D093DA00109243
:10065000DD001092DC002091DC003091DD002032C2
:1006600093E0390738F42F5F3F4F3093DD0020933C
:10067000DC0004C01092DD001092DC009091D900E3
:1006800098133CC09091DA00911138C0882399F1F9
:1006900090E00197FC01EA52FF4F878578DD809159
:1006A000D8008F5F823018F48093D80002C0109277
:1006B000D80080910701811102C0E8DD72CF0CDE05
:1006C0008091D2009091D300A091D400B091D50038
:1006D000892B8A2B8B2B09F064CF65DE8091E50096
:1006E00056DD8091E60053DD18BA12BA80E090E042
:1006F000DF91CF91089581E090E0CCCF282F30E0BA
:10070000F901EA52FF4FC081CA3048F6882319F038
:100710002150310902C021E030E0F901EA52FF4FD7
:10072000878535DDEC2FF0E0EA52FF4F818980FDAF
:10073000C09A80FFC09882B3938D9B7E8471892B71
:1007400082BBE091D800F0E0EA52FF4F878542DD9E
:10075000A6CFCF93DF93E1E0F1E011821082138204
:10076000128215821482EBEFF0E011821082138264
:10077000128215821482C6EDD0E085E0888381E084
:1007800089831A821B828C838D831F821E8287E05D
:10079000E0E7F0E0AEEDB0E001900D928A95E1F770
:1007A00084E08F8786E0888B8AE0E7E7F0E0A7EEB9
:1007B000B0E001900D928A95E1F78AE0E1E8F0E07F
:1007C000A1EFB0E001900D928A95E1F7DF91CF9112
:1007D0000895A1E21A2EAA1BBB1BFD010DC0AA1F82
:1007E000BB1FEE1FFF1FA217B307E407F50720F09A
:1007F000A21BB30BE40BF50B661F771F881F991F15
:100800001A9469F760957095809590959B01AC015D
:10081000BD01CF010895052E97FB16F400940FD06B
:1008200057FD05D0D6DF07FC02D046F408C050952E
:100830004095309521953F4F4F4F5F4F08959095CC
:100840008095709561957F4F8F4F9F4F0895A29F20
:10085000B001B39FC001A39F01D0B29F700D811D55
:100860001124911D0895F3DFA59F900DB49F900D65
:10087000A49F800D911D11240895EE0FFF1F059078
:0A088000F491E02D0994F894FFCFE5
:10088A006E006C006A006800C700B900AB00AB00DC
:10089A000E020B0C0D03050100010100010101010B
:1008AA0001E321C9692B6AEA21EB6B263031323325
:1008BA0034000016173536371011121314150000BC
:1008CA000020212223242500000000F601EC01016A
:1008DA00020A0214020000000029021F0234023D2B
:1008EA00024702000000005C025202670270027AAC
:0208FA000200FA
:00000001FF
